:020000040802F0
:1000000000000320A92A0208B1170208B717020846
:10001000BD170208C3170208C91702080000000034
:10002000000000000000000000000000CF170208E0
:10003000DD17020800000000EB170208F91702089C
:10004000F92A0208F92A0208F92A0208F92A0208FC
:10005000F92A0208F92A0208F92A0208F92A0208EC
:10006000F92A0208F92A0208F92A0208F92A0208DC
:10007000F92A0208F92A0208F92A0208F92A0208CC
:10008000F92A0208F92A0208F92A0208F92A0208BC
:10009000F92A0208F92A0208F92A0208F92A0208AC
:1000A000F92A0208F92A0208F92A0208F92A02089C
:1000B000F92A0208F92A0208F92A0208F92A02088C
:1000C000F92A0208F92A0208F92A0208F92A02087C
:1000D000F92A0208F92A0208F92A0208F92A02086C
:1000E000F92A0208F92A0208F92A0208F92A02085C
:1000F000F92A0208F92A0208F92A0208F92A02084C
:10010000F92A0208F92A0208F92A0208F92A02083B
:10011000F92A0208F92A0208051802081918020823
:10012000F92A0208F92A0208F92A0208F92A02081B
:10013000F92A02082D180208F92A0208F92A0208E9
:10014000F92A0208F92A0208F92A0208F92A0208FB
:10015000F92A0208F92A0208F92A020841180208B5
:10016000F92A0208F92A0208F92A0208F92A0208DB
:10017000F92A0208F92A0208F92A020800000000F8
:10018000F92A0208F92A0208F92A0208F92A0208BB
:10019000F92A0208F92A0208F92A0208F92A0208AB
:0C01A0000000000000000000F92A020826
:1001B00010B5054C237833B9044B13B10448AFF3A1
:1001C00000800123237010BDF80000200000000013
:1001D0002834030808B5034B1BB103490348AFF3A8
:1001E000008008BD00000000FC0000202834030847
:1001F00010F8012B11F8013B012A28BF9A42F7D0D1
:10020000D01A7047034613F8012B002AFBD1181AA5
:1002100001387047000000000000000000000000EE
:1002200001F0FF01102A2BDB10F0070F08D010F8A7
:10023000013B013A8B422DD010F0070F42B3F6D1AB
:10024000F0B441EA012141EA014122F007047FF0C4
:1002500000070023F0E80256083C85EA010586EA1B
:10026000010685FA47F5A3FA87F586FA47F6A5FA57
:1002700087F68EB9EED1F0BC01F0FF0102F0070263
:1002800032B110F8013B013A83EA010313B1F8D10E
:100290000020704701387047002D06BF35460338EF
:1002A000073815F0010F07D1013015F4807F02BF28
:1002B000013015F4C03F0130F0BC0138704700BF79
:1002C00081F0004102E000BF83F0004330B54FEA07
:1002D00041044FEA430594EA050F08BF90EA020F74
:1002E0001FBF54EA000C55EA020C7FEA645C7FEA07
:1002F000655C00F0E2804FEA5454D4EB5555B8BF2A
:100300006D420CDD2C4480EA020281EA030382EA9A
:10031000000083EA010180EA020281EA0303362D2C
:1003200088BF30BD11F0004F4FEA01314FF4801CFF
:100330004CEA113102D0404261EB410113F0004F11
:100340004FEA03334CEA133302D0524263EB4303C8
:1003500094EA050F00F0A780A4F10104D5F1200E66
:100360000DDB02FA0EFC22FA05F2801841F10001C1
:1003700003FA0EF2801843FA05F359410EE0A5F195
:1003800020050EF1200E012A03FA0EFC28BF4CF0C6
:10039000020C43FA05F3C01851EBE37101F000457C
:1003A00007D54FF0000EDCF1000C7EEB00006EEB89
:1003B0000101B1F5801F1BD3B1F5001F0CD3490813
:1003C0005FEA30004FEA3C0C04F101044FEA44526A
:1003D00012F5800F80F09A80BCF1004F08BF5FEAF1
:1003E000500C50F1000041EB045141EA050130BDD1
:1003F0005FEA4C0C404141EB0101013C28BFB1F5E3
:10040000801FE9D291F0000F04BF01460020B1FA2D
:1004100081F308BF2033A3F10B03B3F120020CDA00
:100420000C3208DD02F1140CC2F10C0201FA0CF0DE
:1004300021FA02F10CE002F11402D8BFC2F1200C43
:1004400001FA02F120FA0CFCDCBF41EA0C019040F9
:10045000E41AA2BF01EB0451294330BD6FEA040442
:100460001F3C1CDA0C340EDC04F11404C4F120022D
:1004700020FA04F001FA02F340EA030021FA04F33F
:1004800045EA030130BDC4F10C04C4F1200220FA96
:1004900002F001FA04F340EA0300294630BD21FAD4
:1004A00004F0294630BD94F0000F83F4801306BF9A
:1004B00081F480110134013D4EE77FEA645C18BF8E
:1004C0007FEA655C29D094EA050F08BF90EA020F25
:1004D00005D054EA000C04BF1946104630BD91EA1D
:1004E000030F1EBF0021002030BD5FEA545C05D120
:1004F0004000494128BF41F0004130BD14F580045F
:100500003CBF01F5801130BD01F0004545F0FE41D2
:1005100041F470014FF0000030BD7FEA645C1ABF07
:10052000194610467FEA655C1CBF0B46024650EA3E
:10053000013406BF52EA033591EA030F41F400216A
:1005400030BD00BF90F0000F04BF0021704730B5F0
:100550004FF4806404F132044FF000054FF00001C5
:1005600050E700BF90F0000F04BF0021704730B586
:100570004FF4806404F1320410F0004548BF40425B
:100580004FF000013EE700BF42004FEAE2014FEAB0
:1005900031014FEA02701FBF12F07F4393F07F4F8B
:1005A00081F06051704732F07F4208BF704793F08E
:1005B0007F4F04BF41F40021704730B54FF46074A1
:1005C00001F0004521F000411CE700BF50EA0102A4
:1005D00008BF704730B54FF000050AE050EA01024D
:1005E00008BF704730B511F0004502D5404261EBBD
:1005F00041014FF4806404F132045FEA915C3FF4FE
:10060000D8AE4FF003025FEADC0C18BF03325FEA9A
:10061000DC0C18BF033202EBDC02C2F1200300FA4B
:1006200003FC20FA02F001FA03FE40EA0E0021FA70
:1006300002F11444BDE600BF70B54FF0FF0C4CF45E
:10064000E06C1CEA11541DBF1CEA135594EA0C0F10
:1006500095EA0C0F00F0DEF82C4481EA030621EA4B
:100660004C5123EA4C5350EA013518BF52EA033586
:1006700041F4801143F4801338D0A0FB02CE4FF038
:100680000005E1FB02E506F00042E0FB03E54FF068
:100690000006E1FB03569CF0000F18BF4EF0010E60
:1006A000A4F1FF04B6F5007F64F5407404D25FEA5C
:1006B0004E0E6D4146EB060642EAC62141EA55510F
:1006C0004FEAC52040EA5E504FEACE2EB4F1FD0C51
:1006D00088BFBCF5E06F1ED8BEF1004F08BF5FEACF
:1006E000500E50F1000041EB045170BD06F0004681
:1006F00046EA010140EA020081EA0301B4EB5C042E
:10070000C2BFD4EB0C0541EA045170BD41F4801125
:100710004FF0000E013C00F3AB8014F1360FDEBF4A
:10072000002001F0004170BDC4F10004203C35DA26
:100730000C341BDC04F11404C4F1200500FA05F3A9
:1007400020FA04F001FA05F240EA020001F000424A
:1007500021F0004110EBD37021FA04F642EB0601C0
:100760005EEA430E08BF20EAD37070BDC4F10C04EA
:10077000C4F1200500FA04F320FA05F001FA04F2AE
:1007800040EA020001F0004110EBD37041F100019A
:100790005EEA430E08BF20EAD37070BDC4F12005A5
:1007A00000FA05F24EEA020E20FA04F301FA05F20D
:1007B00043EA020321FA04F001F0004121FA04F2B5
:1007C00020EA020000EBD3705EEA430E08BF20EA85
:1007D000D37070BD94F0000F0FD101F000464000BF
:1007E00041EB010111F4801F08BF013CF7D041EA41
:1007F000060195F0000F18BF704703F00046520045
:1008000043EB030313F4801F08BF013DF7D043EA15
:100810000603704794EA0C0F0CEA135518BF95EACB
:100820000C0F0CD050EA410618BF52EA4306D1D152
:1008300081EA030101F000414FF0000070BD50EA71
:10084000410606BF1046194652EA430619D094EAFB
:100850000C0F02D150EA013613D195EA0C0F05D1E5
:1008600052EA03361CBF104619460AD181EA030139
:1008700001F0004141F0FE4141F470014FF00000F1
:1008800070BD41F0FE4141F4780170BD70B54FF08C
:10089000FF0C4CF4E06C1CEA11541DBF1CEA13550C
:1008A00094EA0C0F95EA0C0F00F0A7F8A4EB0504EE
:1008B00081EA030E52EA03354FEA013100F08880E5
:1008C0004FEA03334FF0805545EA131343EA1263AE
:1008D0004FEA022245EA111545EA10654FEA002663
:1008E0000EF000419D4208BF964244F1FD0404F51C
:1008F000407402D25B084FEA3202B61A65EB030578
:100900005B084FEA32024FF480104FF4002CB6EB34
:10091000020E75EB030E22BFB61A754640EA0C00B4
:100920005B084FEA3202B6EB020E75EB030E22BFF4
:10093000B61A754640EA5C005B084FEA3202B6EB35
:10094000020E75EB030E22BFB61A754640EA9C00F4
:100950005B084FEA3202B6EB020E75EB030E22BFC4
:10096000B61A754640EADC0055EA060E18D04FEA82
:10097000051545EA16754FEA06164FEAC30343EA22
:1009800052734FEAC2025FEA1C1CC0D111F4801FEF
:100990000BD141EA00014FF000004FF0004CB6E7E8
:1009A00011F4801F04BF01430020B4F1FD0C88BF87
:1009B000BCF5E06F3FF6AFAEB5EB030C04BFB6EB92
:1009C000020C5FEA500C50F1000041EB045170BD85
:1009D0000EF0004E4EEA113114EB5C04C2BFD4EBB2
:1009E0000C0541EA045170BD41F480114FF0000E36
:1009F000013C90E645EA060E8DE60CEA135594EAB2
:100A00000C0F08BF95EA0C0F3FF43BAF94EA0C0FB4
:100A10000AD150EA01347FF434AF95EA0C0F7FF429
:100A200025AF104619462CE795EA0C0F06D152EA7D
:100A300003353FF4FDAE1046194622E750EA410661
:100A400018BF52EA43067FF4C5AE50EA41047FF472
:100A50000DAF52EA43057FF4EBAE12E74FF0FF3CD7
:100A600006E000BF4FF0010C02E000BF4FF0010CA8
:100A70004DF804CD4FEA410C7FEA6C5C4FEA430C21
:100A800018BF7FEA6C5C1BD001B050EA410C0CBF70
:100A900052EA430C91EA030F02BF90EA020F0020D2
:100AA000704710F1000F91EA030F58BF994208BF39
:100AB00090422CBFD8176FEAE37040F001007047F6
:100AC0004FEA410C7FEA6C5C02D150EA013C07D14D
:100AD0004FEA430C7FEA6C5CD6D152EA033CD3D098
:100AE0005DF8040B704700BF8446104662468C4692
:100AF0001946634600E000BF01B5FFF7B7FF0028C5
:100B000048BF10F1000F01BD4DF808EDFFF7F4FFED
:100B10000CBF012000205DF808FB00BF4DF808ED78
:100B2000FFF7EAFF34BF012000205DF808FB00BF9B
:100B30004DF808EDFFF7E0FF94BF012000205DF8BD
:100B400008FB00BF4DF808EDFFF7CEFF94BF012072
:100B500000205DF808FB00BF4DF808EDFFF7C4FF6B
:100B600034BF012000205DF808FB00BF4FEA410CB4
:100B70007FEA6C5C02D150EA013C0AD14FEA430C97
:100B80007FEA6C5C02D152EA033C02D14FF00000D4
:100B900070474FF0010070474A0011D212F5001261
:100BA00011D20DD56FF47873B3EB62520ED44FEAC5
:100BB000C12343F0004343EA505323FA02F0704745
:100BC0004FF00000704750EA013002D14FF0FF3083
:100BD00070474FF00000704753B94AB9002908BF69
:100BE00000281CBF4FF0FF314FF0FF3000F074B908
:100BF000ADF1080C6DE904CE00F006F8DDF804E074
:100C0000DDE9022304B070472DE9F047089D044652
:100C10008E46002B4DD18A42944669D9B2FA82F2AF
:100C200052B101FA02F3C2F1200120FA01F10CFAEB
:100C300002FC41EA030E94404FEA1C48210CBEFB23
:100C4000F8F61FFA8CF708FB16E341EA034306FBAC
:100C500007F199420AD91CEB030306F1FF3080F03B
:100C60001F81994240F21C81023E63445B1AA4B288
:100C7000B3FBF8F008FB103344EA034400FB07F72A
:100C8000A7420AD91CEB040400F1FF3380F00A816B
:100C9000A74240F207816444023840EA0640E41B60
:100CA00000261DB1D4400023C5E900433146BDE80C
:100CB000F0878B4209D9002D00F0EF800026C5E9AE
:100CC000000130463146BDE8F087B3FA83F6002EC6
:100CD0004AD18B4202D3824200F2F980841A61EB3E
:100CE000030301209E46002DE0D0C5E9004EDDE75C
:100CF00002B9FFDEB2FA82F2002A40F09280A1EB44
:100D00000C014FEA1C471FFA8CFE0126200CB1FB98
:100D1000F7F307FB131140EA01410EFB03F0884291
:100D200008D91CEB010103F1FF3802D2884200F21E
:100D3000CB804346091AA4B2B1FBF7F007FB1011B0
:100D400044EA01440EFB00FEA64508D91CEB04044E
:100D500000F1FF3102D2A64500F2BB800846A4EBA9
:100D60000E0440EA03409CE7C6F12007B34022FA94
:100D700007FC4CEA030C20FA07F401FA06F31C43C3
:100D8000F9404FEA1C4900FA06F3B1FBF9F8200CD0
:100D90001FFA8CFE09FB181140EA014108FB0EF016
:100DA000884202FA06F20BD91CEB010108F1FF3A66
:100DB00080F08880884240F28580A8F10208614472
:100DC000091AA4B2B1FBF9F009FB101144EA014180
:100DD00000FB0EFE8E4508D91CEB010100F1FF342B
:100DE0006CD28E456AD90238614440EA0840A0FBC3
:100DF0000294A1EB0E01A142C846A64656D353D099
:100E00005DB1B3EB080261EB0E0101FA07F722FABC
:100E100006F3F1401F43C5E9007100263146BDE8E5
:100E2000F087C2F12003D8400CFA02FC21FA03F348
:100E3000914001434FEA1C471FFA8CFEB3FBF7F0C9
:100E400007FB10360B0C43EA064300FB0EF69E42EE
:100E500004FA02F408D91CEB030300F1FF382FD287
:100E60009E422DD9023863449B1B89B2B3FBF7F62F
:100E700007FB163341EA034106FB0EF38B4208D908
:100E80001CEB010106F1FF3816D28B4214D9023E49
:100E90006144C91A46EA004638E72E46284605E767
:100EA0000646E3E61846F8E64B45A9D2B9EB020838
:100EB00064EB0C0E0138A3E74646EAE7204694E7C8
:100EC0004046D1E7D0467BE7023B614432E73046FB
:100ED00009E76444023842E7704700BF80B584B038
:100EE00000AF0346FB800C2010F05EF90346FB6068
:100EF000FB88184610F058F903461A46FB689A60BA
:100F0000FB68FA88DA80F86800F096F8FB68184603
:100F10001037BD4680BD80B582B000AF78600B460B
:100F2000FB707B689A887B68DB889A421FD200F04E
:100F3000F7F87B689B687A6812881344FA781A700D
:100F40007B681B8801337A68D28893FBF2F101FB3E
:100F500002F29B1A9AB27B681A807B689B880133E5
:100F60009AB27B689A8000F0EFF8012300E000233A
:100F700018460837BD4680BD80B586B000AFF86022
:100F8000B9601346FB800023FB820FE0FB8ABA683E
:100F900013441B781946F868FFF7BDFF0346002B82
:100FA00001D1FB8A07E0FB8A0133FB82FA8AFB88C6
:100FB0009A42EBD3FB8A18461837BD4680BD80B5F0
:100FC00084B000AF78607B689B88002B01D1002340
:100FD0001EE000F0A5F87B689B88013B9AB27B6815
:100FE0009A807B689B687A68528813441B78FB73ED
:100FF0007B685B8801337A68D28893FBF2F101FB4E
:1010000002F29B1A9AB27B685A8000F09DF8FB7B33
:1010100018461037BD4680BD80B483B000AF7860FD
:101020007B689B687A68528813441B7818460C3793
:10103000BD465DF8047B704780B582B000AF786034
:1010400000F06EF87B6800229A807B6800221A808C
:101050007B6800225A8000F077F800BF0837BD4651
:1010600080BD80B483B000AF78607B689B88002B24
:1010700014BF01230023DBB218460C37BD465DF8D0
:10108000047B704790B587B000AFF860B960134635
:10109000FB80F868FFF7E5FF0346002B01D1002332
:1010A0001DE0F86800F01FF80346FB82FA8AFB880F
:1010B0009A4201D9FB88FB820023BB820AE0BB8AEB
:1010C000BA68D418F868FFF77AFF03462370BB8A22
:1010D0000133BB82BA8AFB8A9A42F0D3FB8A184654
:1010E0001C37BD4690BD80B483B000AF78607B688C
:1010F0009B8818460C37BD465DF8047B704780B46A
:1011000083B000AF78607B68DA887B689B88D31AED
:101110009BB218460C37BD465DF8047B7047000053
:1011200080B483B000AFEFF310837B607B68054A27
:10113000136072B600BF00BF0C37BD465DF8047B7C
:10114000704700BF1401002080B483B000AF064B8D
:101150001B687B607B6883F3108800BF00BF0C377F
:10116000BD465DF8047B70471401002080B586B051
:1011700000AF786039607868FFF744F878617B6980
:101180000133184610F010F803463B61796838695E
:1011900010F060F9082010F007F80346FB60FB68C8
:1011A0003A691A60FB683A685A60FB681846183753
:1011B000BD4680BD80B582B000AF78607B68002BF3
:1011C00003D07B685B68002B01D1002304E07B68BF
:1011D0005B6800209847034618460837BD4680BD27
:1011E00080B483B000AF78607B68002B01D100230E
:1011F00001E07B681B6818460C37BD465DF8047B30
:101200007047000080B58AB000AF07F114030022D8
:101210001A605A609A60DA601A6100233B612C4BB5
:101220001B6B2B4A43F080031363294B1B6B03F0AA
:1012300080033B613B690023FB60254B1B6B244A09
:1012400043F004031363224B1B6B03F00403FB60A6
:10125000FB680023BB601E4B1B6B1D4A43F0010360
:1012600013631B4B1B6B03F00103BB60BB680023C4
:101270007B60174B1B6B164A43F010031363144B30
:101280001B6B03F010037B607B6800233B60104BFB
:101290001B6B0F4A43F0020313630D4B1B6B03F0F0
:1012A00002033B603B684FF480737B610223BB61A8
:1012B0000023FB6100233B6200237B6207F11403E0
:1012C0001946044803F020F800BF2837BD4680BD0A
:1012D000003802400000024080B400AFBFF34F8FDF
:1012E00000BF064BDB6803F4E0620449044B134380
:1012F000CB60BFF34F8F00BF00BFFDE700ED00E004
:101300000400FA0580B500AF47494848FFF72EFFB3
:101310000346474A136047494748FFF727FF0346FC
:10132000434A536045494648FFF720FF0346404A79
:10133000936044494448FFF719FF03463C4AD36091
:1013400042494348FFF712FF0346394A13614149B6
:101350004148FFF70BFF0346354A53613F49404878
:10136000FFF704FF0346324A93613E493E48FFF7C8
:10137000FDFE03462E4AD3613C493D48FFF7F6FE89
:1013800003462B4A13623B493B48FFF7EFFE0346F7
:10139000274A536239493A48FFF7E8FE0346244A90
:1013A000936238493848FFF7E1FE0346204AD3628A
:1013B00036493748FFF7DAFE03461D4A136301F04A
:1013C0009DFB00F071F8FFF71DFF00F033FD00F00A
:1013D000F9FA00F097FB00F0CBFB06F053F800F0B1
:1013E000CBFD00212B4804F023F82B4803F028FF05
:1013F0002A4803F025FF0D210D4800F045F900F0C3
:1014000043FE274800F0C6F8264B4AF6AA221A6087
:1014100006F064F900F0C4FD00F0A2FD0346002BC5
:10142000F2D000F0C9F8EFE7D927020840340308EA
:101430009C010020E927020844340308F927020828
:1014400048340308092802084C3403081928020804
:1014500050340308292802085434030839280208A4
:1014600058340308A92802085C3403080929020833
:10147000603403086929020864340308CD2902088E
:1014800068340308492802086C3403085916020816
:1014900070340308E00100202802002070020020C0
:1014A000743403080030004080B594B000AF07F1F9
:1014B00020033022002118460FF09CFE07F10C0398
:1014C00000221A605A609A60DA601A610023BB60D9
:1014D0002E4B1B6C2D4A43F0805313642B4B1B6C1B
:1014E00003F08053BB60BB6800237B60284B1B6804
:1014F000274A43F440431360254B1B6803F44043E1
:101500007B607B6801233B624FF480337B62022364
:10151000BB634FF48003FB630F233B64D8237B64DE
:101520000223BB640423FB6407F12003184603F085
:10153000E7F80346002B01D000F0A0F803F090F884
:101540000346002B01D000F099F80F23FB60022323
:101550003B6100237B614FF4A053BB614FF4805388
:10156000FB6107F10C030521184603F041FB03461C
:10157000002B01D000F082F800224FF480010020FF
:1015800003F01CFC00BF5037BD4680BD0038024050
:101590000070004080B582B000AF78607868FEF7D8
:1015A00031FE03469BB21946786800F0BDFC00BFCF
:1015B0000837BD4680BD000080B582B000AF184B33
:1015C0001B781A46174B13440121184600F0F0FC13
:1015D0000346002B20D0124B1B781A46114B9B5C04
:1015E000FB700F4B1B780133DAB20D4B1A70FB1CEA
:1015F0000121184600F098FC094B1B781A46094B4C
:1016000000219954074800F073F878600648FFF706
:10161000C1FF786800F00AF800BF0837BD4680BDFA
:1016200098010020180100208034030880B582B0A2
:1016300000AF78607868FEF7E5FD03469BB2194677
:10164000786800F071FC034B00221A7000BF083765
:10165000BD4680BD9801002080B500AF02F0E2FCDD
:101660004FF000024FF000030349022002F086FC15
:1016700002F0FAFCFFF730FE0040100880B400AF23
:1016800072B600BFFEE7000080B584B000AF78609E
:101690000B467B80144B1B68002B21D17B889B0061
:1016A00018460FF081FD03461A460F4B1A600023BF
:1016B000FB810DE0FB899B007A681A440A4B19688C
:1016C000FB899B000B4412681A60FB890133FB8184
:1016D000FA897B889A42EDD3044A7B88138000E024
:1016E00000BF1037BD4680BDD0010020D4010020CE
:1016F00080B584B000AF78600023FB811FE0154BFC
:101700001A68FB899B0013441B68BB60114B1A6865
:10171000FB899B0013441B681846FFF761FD0346D5
:1017200079681846FEF764FD0346002B04D1B868BB
:10173000FFF740FD034608E0FB890133FB81064BC0
:101740001B88FA899A42DAD3044B18461037BD46F3
:1017500080BD00BFD0010020D401002084340308E4
:1017600080B483B000AF00237B60104B5B6C0F4AEA
:1017700043F4804353640D4B5B6C03F480437B6004
:101780007B6800233B60094B1B6C084A43F0805385
:101790001364064B1B6C03F080533B603B6800BF37
:1017A0000C37BD465DF8047B704700BF003802402F
:1017B00080B400AFFEE780B400AFFEE780B400AFB6
:1017C000FEE780B400AFFEE780B400AFFEE780B470
:1017D00000AF00BFBD465DF8047B704780B400AF2A
:1017E00000BFBD465DF8047B704780B400AF00BF0A
:1017F000BD465DF8047B704780B500AF01F0D0F9BD
:1018000000BF80BD80B500AF024803F0D9FE00BF25
:1018100080BD00BF2802002080B500AF024803F061
:10182000CFFE00BF80BD00BF7002002080B500AFBA
:10183000024801F079FF00BF80BD00BF9C3400204A
:1018400080B500AF024804F0E9FE00BF80BD00BFD4
:10185000C402002080B586B000AFF860B9607A603D
:1018600000237B610AE0AFF300800146BB685A1C8D
:10187000BA60CAB21A707B6901337B617A697B688E
:101880009A42F0DB7B6818461837BD4680BD80B5AC
:1018900086B000AFF860B9607A6000237B6109E030
:1018A000BB685A1CBA601B781846AFF300807B698E
:1018B00001337B617A697B689A42F1DB7B68184669
:1018C0001837BD4680BD80B483B000AF78604FF05C
:1018D000FF3318460C37BD465DF8047B704780B473
:1018E00083B000AF786039603B684FF400525A60B3
:1018F000002318460C37BD465DF8047B704780B462
:1019000083B000AF7860012318460C37BD465DF800
:10191000047B704780B485B000AFF860B9607A602E
:10192000002318461437BD465DF8047B704700005D
:1019300080B487B000AF7860144A154BD31A7B612E
:101940007B693B61134B1B68002B02D1114B124A80
:101950001A60104B1A687B6813443A699A4205D2A0
:101960000E4B0C221A604FF0FF3309E0094B1B6845
:10197000FB60084B1A687B681344064A1360FB68D7
:1019800018461C37BD465DF8047B704700000320F5
:1019900000040000D8010020B06B0020A46B0020E0
:1019A00080B400AF064BD3F88830054A43F4700387
:1019B000C2F8883000BFBD465DF8047B704700BFA9
:1019C00000ED00E080B596B000AF07F148030022BB
:1019D0001A605A609A60DA6007F1400300221A60C8
:1019E0005A6007F1240300221A605A609A60DA6094
:1019F0001A615A619A613B1D2022002118460FF09E
:101A0000F9FB3E4B3E4A1A603C4B00225A603B4B6E
:101A100000229A60394B1422DA60384B00221A6196
:101A2000364B00225A61354B00229A61334803F04D
:101A300027FB0346002B01D0FFF720FE4FF4805315
:101A4000BB6407F1480319462C4803F083FF0346A3
:101A5000002B01D0FFF712FE284803F090FC03464C
:101A6000002B01D0FFF70AFE00233B6400237B64B8
:101A700007F140031946214804F06CFB0346002B94
:101A800001D0FFF7FBFD60237B620023BB620023D4
:101A9000FB6200233B6300237B630023BB630023C3
:101AA000FB6307F1240300221946144803F090FE5B
:101AB0000346002B01D0FFF7E1FD00237B600023EC
:101AC000BB600023FB6000233B6100237B614FF47C
:101AD0000053BB6100233B623B1D1946074804F0DD
:101AE000B5FB0346002B01D0FFF7C8FD034800F00B
:101AF000D1F800BF5837BD4680BD00BFE0010020CF
:101B00000000014080B582B000AF3B4600221A6061
:101B10005A60154B154A1A60134B4AF6C7725A6041
:101B2000114B00229A60104B4FF4FA62DA600E4BB0
:101B300000229A610C4803F0A3FA0346002B01D05F
:101B4000FFF79CFD00233B6000237B603B4619466A
:101B5000054804F0FFFA0346002B01D0FFF78EFD85
:101B600000BF0837BD4680BD28020020001000409D
:101B700080B582B000AF3B4600221A605A60154B18
:101B8000154A1A60134B4AF6C7725A60114B00226D
:101B90009A60104B42F21072DA600E4B00229A618A
:101BA0000C4803F06DFA0346002B01D0FFF766FDE9
:101BB00000233B6000237B603B461946054804F048
:101BC000C9FA0346002B01D0FFF758FD00BF0837C4
:101BD000BD4680BD700200200014004080B586B074
:101BE00000AF78607B681B68264A93420ED10023C1
:101BF0007B61254B5B6C244A43F001035364224B09
:101C00005B6C03F001037B617B6936E07B681B68DA
:101C10001E4A934216D100233B611B4B1B6C1A4A90
:101C200043F010031364184B1B6C03F010033B616B
:101C30003B6900220021362001F0D1F8362001F066
:101C4000EAF81AE07B681B68114A934215D1002319
:101C5000FB600D4B1B6C0C4A43F0200313640A4BD2
:101C60001B6C03F02003FB60FB680022002137207F
:101C700001F0B5F8372001F0CEF800BF1837BD46A7
:101C800080BD00BF0000014000380240001000404D
:101C90000014004080B588B000AF786007F10C03F5
:101CA00000221A605A609A60DA601A617B681B68C9
:101CB000124A93421ED10023BB60114B1B6B104A8A
:101CC00043F0100313630E4B1B6B03F01003BB6058
:101CD000BB684FF40073FB6002233B6100237B6110
:101CE0000023BB610123FB6107F10C031946054882
:101CF00002F00AFB00BF2037BD4680BD0000014056
:101D0000003802400010024080B500AF024803F0E6
:101D100007FA0346184680BD2802002080B500AFB0
:101D2000024803F065FA0346184680BD28020020E9
:101D300080B400AF034B01221A7000BFBD465DF8AE
:101D4000047B7047DC01002080B400AF034B00220D
:101D50001A7000BFBD465DF8047B7047DC010020AF
:101D600080B582B000AF78607B681B68284A9342D8
:101D700027D1284B1B78002B07D1FFF7CFFF264B2D
:101D800000225A6300F052FE1BE0244B1B78013303
:101D9000DAB2224B1A70214B1B78052B0CD91F4B42
:101DA00000221A70FFF7BAFF1B4B00225A63FFF79D
:101DB000CBFF00F03BFE04E0184B1B78184600F008
:101DC000B3FC7B681B68164A93421ED1154B1B78E7
:101DD000012B03D1134B00221A7016E002F022F9F6
:101DE0004FF000024FF000030F49022002F0C6F846
:101DF0004FF000024FF000030C49022002F0BEF841
:101E000002F032F90A4803F08BFA0837BD4680BD6C
:101E100000100040DC01002000000140B80200205A
:101E200000140040040000200880100808C01008BA
:101E30007002002080B500AF114B124A1A60104B9F
:101E40004FF4E1325A600E4B00229A600C4B002294
:101E5000DA600B4B00221A61094B0C225A61084BC5
:101E600000229A61064B0022DA61054804F054FA18
:101E70000346002B01D0FFF701FC00BF80BD00BF6F
:101E8000C40200200014014080B58AB000AF786021
:101E900007F1140300221A605A609A60DA601A612E
:101EA0007B681B681D4A934233D100233B611C4B66
:101EB0005B6C1B4A43F020035364194B5B6C03F0CB
:101EC00020033B613B690023FB60154B1B6B144AED
:101ED00043F004031363124B1B6B03F00403FB601A
:101EE000FB68C0237B610223BB610023FB610323EA
:101EF0003B6208237B6207F114031946094802F08C
:101F000003FA00220021472000F069FF472000F07B
:101F100082FF00BF2837BD4680BD00BF00140140CE
:101F2000003802400008024080B584B000AF7860FD
:101F30000B467B807B68002B01D1002309E0074B17
:101F40001B687A8879681846FFF716F80346FB8104
:101F5000FB8918461037BD4680BD00BFBC0200207B
:101F600080B500AF034B1B681846FFF77AF80346AD
:101F7000184680BDC002002080B500AF8020FEF76B
:101F8000ADFF0346044A13608020FEF7A7FF034617
:101F9000024A136000BF80BDBC020020C0020020C6
:101FA00080B500AF00F04AF800F018F800BF80BD1F
:101FB00080B584B000AF78600B467B80064B1B6811
:101FC0007A8879681846FFF75DF80346FB81FB893C
:101FD00018461037BD4680BDC002002080B582B0D3
:101FE00000AF154B1B681846FFF789F80346002B16
:101FF00010D00023FB71FB1D0121184600F03CFDB1
:102000000346002B06D00C4B1B68FA791146184684
:10201000FEF781FF084B1B681846FFF722F80346BE
:10202000002B04D1044B1B681846FFF705F800BFCE
:102030000837BD4680BD00BFC002002080B582B019
:1020400000AF104B1B681846FFF70BF80346002B38
:1020500013D00C4B1B681846FEF7DEFF0346FB71DE
:10206000FB790121184600F0EDFC0346002B04D05B
:10207000044B1B681846FEF7A2FF00BF0837BD4699
:1020800080BD00BFBC02002080B582B000AF08F068
:10209000E3FB0346134A1360124B1B68002B1DD051
:1020A000114B3B600F4B1B6839465022184607F016
:1020B00053FC0346FB7197F90730002B0ED1094BF7
:1020C0001B68FF21184607F0E9FC0346054A136028
:1020D000044B1B680549184608F03CFC00BF083754
:1020E000BD4680BD08030020A9FE082DF12002088E
:1020F00080B586B000AFF860B9601346FB7101216E
:10210000B86808F01DFA0C2006F036F838613B6913
:10211000002B1FD03B6901221A703B69BA685A60D4
:102120003B6900225A703B6900229A603969B8689D
:1021300008F09AFB0B49B86808F0A8FB0A49B86890
:1021400008F0E6FB00220949B86808F01BFC0023F0
:10215000FB7501E0FF23FB7597F917301846183718
:10216000BD4680BD71210208AD220208D1220208BD
:1021700080B588B000AFF860B9607A60FB70FB682A
:10218000002B05D1454B5322454946480FF01AF91B
:10219000FB68BB617B68002B16D1BB6903221A70F8
:1021A000BB699B68002B04D1B969B86800F036F9A7
:1021B00007E03D49B86808F08BFBB969B86800F0E2
:1021C000DFF80023FB7763E097F90330002B0BD097
:1021D0007B68002B05D0BB6900229A60786806F006
:1021E000A3FEFB78FB7753E0BB691B78012B10D172
:1021F000BB6902221A70BB697A689A602A49B8687A
:1022000008F066FBB969B86800F0BAF80023FB77FC
:102210003EE0BB691B78022B19D1BB699B68002B80
:102220000BD1BB697A689A601F49B86808F050FB07
:10223000B969B86800F0A4F806E0BB699B687B61E7
:102240007968786906F094FF0023FB7720E0BB698A
:102250001B78032B0ED17B681B891946B86807F0E1
:1022600015FDBB6900229A60786806F05DFE0023C8
:10227000FB770DE07B681B891946B86807F006FDFF
:10228000BB6900229A60786806F04EFE0023FB7757
:1022900097F91F3018462037BD4680BD9834030893
:1022A000B4340308C03403083123020880B584B075
:1022B00000AF78600B46FB707B68FB60FB68002B0F
:1022C00002D0F86805F01AFE00BF1037BD4680BD89
:1022D00080B584B000AF786039607B68BB60BB6854
:1022E000002B17D0BB689B68002B08D00F493868BB
:1022F00008F0EEFAB968386800F042F807E0BB6809
:102300001B78032B03D1B968386800F087F80023E5
:10231000FB7304E0386807F013FBF323FB7397F9B2
:102320000F3018461037BD4680BD00BF312302086C
:1023300080B586B000AFF860B9601346FB80FB68DB
:102340007B617B6900225A707B699B68002B08D0F7
:102350000A49B86808F0BCFA7969B86800F010F862
:1023600007E07B691B78032B03D17969B86800F01B
:1023700055F8002318461837BD4680BD31230208A2
:1023800080B586B000AF786039600023FB7531E01E
:102390003B689B683B613969786800F07DF8F860BC
:1023A000FB68002B09D0F868FDF72CFF03469AB2B2
:1023B0000123F96878680BF097F83B695B897B81AA
:1023C0003B691A683B689A603B689B68002B04D0A5
:1023D0003B689B68184606F053FE386906F0A4FD7A
:1023E00003467B727B7A002BF7D07B89194678688D
:1023F00007F04CFC97F91730002B0BD13B689B681A
:10240000002B07D03B689B685A897B68B3F8603023
:102410009A42BDD900BF1837BD4680BD80B582B095
:1024200000AF786039600021786808F01DFA00215B
:10243000786808F04DFA0021786808F027FA002142
:10244000786808F065FA00220021786808F09AFAA6
:102450003B68002B02D0386805F050FD786807F023
:10246000A5F900BF0837BD4680BD000080B400AFAD
:10247000BFF34F8F00BF064BDB6803F4E0620449F3
:10248000044B1343CB60BFF34F8F00BF00BFFDE78A
:1024900000ED00E00400FA0580B584B000AF78607C
:1024A0003960694B4AF6AA221A603B68002B07D0B4
:1024B0003B685B89002B03D03B685B68002B01D134
:1024C000624BBDE03B685B681B78FB73FB7B352B85
:1024D00074DC002B40F3B380013B342B00F2AF805F
:1024E00001A252F823F000BFC3250208CB25020841
:1024F000D3250208DB250208E3250208EB250208A4
:10250000F32502083F2602083F2602083F2602085C
:102510003F2602083F2602083F2602083F260208FF
:102520003F260208FB250208032602083F26020870
:102530003F2602083F2602083F2602083F260208DF
:102540003F2602083F2602083F2602083F260208CF
:102550003F2602083F2602083F2602083F260208BF
:102560003F2602080B260208132602083F2602080F
:102570003F2602083F2602083F2602083F2602089F
:102580003F2602083F2602083F2602083F2602088F
:102590003F2602083F2602083F2602083F2602087F
:1025A0003F2602083F2602083F2602083F2602086F
:1025B0003F2602083F2602081B260208FF2B30D0C8
:1025C0003DE000F009F903463AE000F00DF903465A
:1025D00036E000F011F9034632E000F015F9034649
:1025E0002EE000F019F903462AE000F01DF9034639
:1025F00026E000F021F9034622E000F055F90346F9
:102600001EE000F081F903461AE000F0ADF9034640
:1026100016E000F0DBF9034612E000F015F903467E
:102620000EE001F0FFFC4FF000024FF000030849FC
:10263000022001F0A3FC01F017FDFFF717FF054B87
:1026400018461037BD4680BD00300040EC3403080A
:1026500000401008FC340308B0B582B000AF034658
:10266000FB71FB79184ADB001344D3E90045174B93
:102670001B781846FDF766FF02460B4643EC112B0C
:102680009FED0F0B0FF0B0FF53EC102B20462946A7
:10269000FDF7D2FF02460B4643EC172BB0EE470A7C
:1026A000F0EE670A0FF012FFB0EE407AF0EE607ABB
:1026B000B0EE470AF0EE670A0837BD46B0BD00BF6E
:1026C0000000000000000040300000200500002055
:1026D00080B483B000AF0346FB71FB790A2B02D8AC
:1026E000044AFB79536300BF0C37BD465DF8047B99
:1026F000704700BF0000014080B582B000AF0346C4
:10270000FB8002F0A9FC0146FA8813469B001344A3
:102710009B00B1FBF3F3034A013B936200BF083710
:10272000BD4680BD0000014080B582B000AF0346C9
:10273000FB71FB791846FFF78FFF53EC102B104607
:102740001946FEF729FA03469BB21846FFF7D4FF55
:102750000A20FFF7BDFF00BF0837BD4680BD00005F
:1027600080B584B002AF0346FB71134B1B78002B7E
:1027700001D0124B1BE0104B01221A70FB79184656
:10278000FFF7D2FFFFF7C0FAFB790D4A52F823207A
:102790000C4B1B7819460C4B53F821100B4B1B6844
:1027A00000930B460A490B480EF034FE094B1846BD
:1027B0000837BD4680BD00BF0C030020CC350308A0
:1027C0006800002005000020080000208400002090
:1027D000E03503081003002080B500AF0020FFF7AC
:1027E000BFFF0346184680BD80B500AF0120FFF74C
:1027F000B7FF0346184680BD80B500AF0220FFF743
:10280000AFFF0346184680BD80B500AF0320FFF739
:10281000A7FF0346184680BD80B500AF0420FFF730
:102820009FFF0346184680BD80B500AF0520FFF727
:1028300097FF0346184680BD80B500AF0620FFF71E
:102840008FFF0346184680BD80B500AF0F4B1B7845
:10285000002B01D00E4B16E00C4B01221A70FFF733
:1028600067FA0020FFF760FFFFF74EFA094B1B786D
:102870001A46094B53F82220084B1B68084909489F
:102880000EF0C8FD074B184680BD00BF0C030020AA
:10289000CC3503080500002008000020840000203B
:1028A000FC3503081003002080B500AF0F4B1B78E8
:1028B000002B01D00E4B17E00E4B1B78072B12D8C4
:1028C0000C4B1B780133DAB20A4B1A70094B1B7898
:1028D0001A46094B53F822301A46084908480EF0A8
:1028E00099FD074B00E0074B184680BD0C03002004
:1028F000CC3503080500002008000020243603081A
:10290000100300202836030880B500AF0F4B1B785A
:10291000002B01D00E4B17E00E4B1B78002B12D072
:102920000C4B1B78013BDAB20A4B1A70094B1B782F
:102930001A46094B53F822301A46084908480EF047
:1029400069FD074B00E0074B184680BD0C030020D3
:10295000CC350308050000200800002024360308B9
:10296000100300203C36030880B500AF104B1B78E5
:10297000002B01D00F4B19E00F4B1B6841F287323F
:10298000934212DC0D4BDB6A0C4A6433D3620A4B70
:102990001B686433084A1360074B1B681A460849D2
:1029A00008480EF037FD074B00E0074B184680BD86
:1029B0000C030020CC3503088400002000100040E8
:1029C00050360308100300205836030880B500AFC6
:1029D0000F4B1B78002B01D00E4B17E00E4B1B68E2
:1029E000642B12DD0D4BDB6A0C4A643BD3620A4B4D
:1029F0001B68643B084A1360074B1B681A4608496A
:102A000008480EF007FD074B00E0074B184680BD55
:102A10000C030020CC350308840000200010004087
:102A200050360308100300207036030880B400AF4E
:102A3000034B00221A7000BFBD465DF8047B70474F
:102A40000C03002080B582B000AF03460A46FB713C
:102A50001346BB80BB88F91D0122064803F0A9FC80
:102A60000346002B0CBF01230023DBB218460837B6
:102A7000BD4680BDC402002080B582B000AF786042
:102A80000B467B807B8801227968064803F023FD92
:102A90000346002B0CBF01230023DBB21846083786
:102AA000BD4680BDC4020020DFF834D00D480E4979
:102AB0000E4A002302E0D458C4500433C4188C4298
:102AC000F9D30B4A0B4C002301E013600432A242FD
:102AD000FBD3FEF765FF0EF043FBFEF713FC7047D8
:102AE0000000032000000020F80000202855030803
:102AF000F8000020AC6B0020FEE7000080B500AFBE
:102B00000E4B1B680D4A43F4007313600B4B1B689C
:102B10000A4A43F480631360084B1B68074A43F476
:102B200080731360032000F04FF90F2000F008F8C5
:102B3000FEF716FE0023184680BD00BF003C024091
:102B400080B582B000AF7860124B1A68124B1B78C8
:102B500019464FF47A73B3FBF1F3B2FBF3F3184663
:102B600000F067F90346002B01D001230EE07B68DB
:102B70000F2B0AD8002279684FF0FF3000F02FF9B0
:102B8000064A7B681360002300E0012318460837DB
:102B9000BD4680BD000000208C0000208800002081
:102BA00080B400AF064B1B781A46064B1B681344D3
:102BB000044A136000BFBD465DF8047B704700BF48
:102BC0008C0000209003002080B400AF034B1B68F2
:102BD0001846BD465DF8047B704700BF9003002097
:102BE00080B584B000AF7860FFF7EEFFB8607B6817
:102BF000FB60FB68B3F1FF3F05D00A4B1B781A4618
:102C0000FB681344FB6000BFFFF7DEFF0246BB68B2
:102C1000D31AFA689A42F7D800BF00BF1037BD46F2
:102C200080BD00BF8C00002080B485B000AF78600C
:102C30007B6803F00703FB600C4BDB68BB60BA6882
:102C40004FF6FF031340BB60FB681A02BB681343D7
:102C500043F0BF6343F40033BB60044ABB68D360F6
:102C600000BF1437BD465DF8047B704700ED00E0FF
:102C700080B400AF044BDB681B0A03F0070318465F
:102C8000BD465DF8047B704700ED00E080B483B082
:102C900000AF0346FB7197F90730002B0BDBFB7984
:102CA00003F01F02074997F907305B09012000FA7A
:102CB00002F241F8232000BF0C37BD465DF8047BCB
:102CC000704700BF00E100E080B483B000AF03466E
:102CD0003960FB7197F90730002B0ADB3B68DAB2E9
:102CE0000C4997F907301201D2B20B4483F8002344
:102CF0000AE03B68DAB20849FB7903F00F03043BB2
:102D00001201D2B20B441A7600BF0C37BD465DF8F3
:102D1000047B704700E100E000ED00E080B489B082
:102D200000AFF860B9607A60FB6803F00703FB61ED
:102D3000FB69C3F10703042B28BF0423BB61FB69B4
:102D40000433062B02D9FB69033B00E000237B61BF
:102D50004FF0FF32BB6902FA03F3DA43BB681A4053
:102D60007B699A404FF0FF317B6901FA03F3D94345
:102D70007B680B40134318462437BD465DF8047B3F
:102D80007047000080B582B000AF78607B68013B7F
:102D9000B3F1807F01D301230FE00A4A7B68013B36
:102DA00053600F214FF0FF30FFF78EFF054B0022DD
:102DB0009A60044B07221A60002318460837BD4664
:102DC00080BD00BF10E000E080B582B000AF786049
:102DD0007868FFF729FF00BF0837BD4680BD80B582
:102DE00086B000AF0346B9607A60FB7300237B6155
:102DF000FFF73EFF78617A68B9687869FFF78EFF60
:102E0000024697F90F3011461846FFF75DFF00BFE5
:102E10001837BD4680BD80B582B000AF0346FB7158
:102E200097F907301846FFF731FF00BF0837BD4656
:102E300080BD80B582B000AF78607868FFF7A2FFF0
:102E4000034618460837BD4680BD80B584B000AF44
:102E500078607B689B6DFB60FFF7B6FEB8607B68AF
:102E600093F83530DBB2022B08D07B6880225A659C
:102E70007B68002283F83420012352E07B681B68C2
:102E80001A687B681B6822F016021A607B681B6850
:102E90005A697B681B6822F080025A617B681B6C50
:102EA000002B03D17B689B6C002B07D07B681B68D1
:102EB0001A687B681B6822F008021A607B681B682E
:102EC0001A687B681B6822F001021A6013E0FFF7A2
:102ED0007BFE0246BB68D31A052B0CD97B682022E7
:102EE0005A657B68032283F835207B68002283F8CB
:102EF0003420032315E07B681B681B6803F0010383
:102F0000002BE4D17B68DB6D3F229A40FB689A601E
:102F10007B68012283F835207B68002283F8342007
:102F2000002318461037BD4680BD80B483B000AF83
:102F300078607B6893F83530DBB2022B04D07B6875
:102F400080225A6501230CE07B68052283F8352036
:102F50007B681B681A687B681B6822F001021A6094
:102F6000002318460C37BD465DF8047B704700000F
:102F700080B588B000AF78600023FB610023FB6060
:102F8000A14BBB6100237B6100233B617B68002B6D
:102F900001D1012382E17B6893F84430DBB2002B3E
:102FA00006D17B68002283F84520786804F0A2FBF4
:102FB0000023BB60954B5B6C944A43F4804353649D
:102FC000924B5B6C03F48043BB60BB68904B5B68C7
:102FD0008F4A23F4000353608D4B5A687B681B6A49
:102FE0008B4913434B607B681B6803F580531B6858
:102FF0007A68126843F0010302F580521360FFF70C
:10300000E3FD786111E0FFF7DFFD02467B69D31A2B
:10301000B3F5FA7F09D97B68032283F844207B68E3
:10302000002283F84520032338E17B681B6803F501
:1030300080531B6803F00103002BE4D17B681B68FD
:103040001B69FB61FB6923F01C03FB6101F0E4FFDA
:10305000B861BB696F4A934208D9BB696E4A934213
:1030600004D8FB6943F00803FB6127E0BB696A4AA7
:10307000934208D9BB69644A934204D2FB6943F086
:103080000C03FB611AE0BB695F4A934203D3BB693F
:10309000624A934211D9BB69604A934208D9BB691D
:1030A0005F4A934204D8FB6943F00403FB6105E0E7
:1030B000FB6943F01003FB6100E000BF7B681B6805
:1030C000FA691A614FF400420021786800F016FC9A
:1030D0000346002B0BD001233B613969786800F06F
:1030E000A3FC7B68012283F844200123D6E0FF2063
:1030F000FFF776FD7B685B68002B00F0A480FFF78C
:1031000063FD786107F10C031A460121786800F02D
:103110008DFBFFF759FD02467B69D31A41F28832D5
:1031200093420FD901233B613969786800F07CFC38
:103130007B68012283F844207B68002283F84520C5
:103140000323ABE0FB6803F00403002BDAD04FF459
:1031500080520021786800F0D1FB0346002B0BD091
:1031600001233B613969786800F05EFC7B680122CD
:1031700083F84420012391E0FFF726FD786107F1F1
:103180000C031A460121786800F050FBFFF71CFD84
:1031900002467B69D31A41F2883293420FD9012348
:1031A0003B613969786800F03FFC7B68012283F855
:1031B00044207B68002283F8452003236EE0FB68EF
:1031C00003F02003002BDAD007F10C031A4610217C
:1031D000786800F02BFB0346002B0BD001233B61EA
:1031E0003969786800F020FC7B68012283F844206C
:1031F000012353E0FB6803F00403002B12D07B682B
:103200004FF40062DA6010E0008793030038024058
:1032100000380140FF2C3101BF0E1602FFE0F5051A
:103220007FD1F0087B680022DA60FB6803F00203BC
:10323000002B03D07B6800229A6026E07B684FF465
:1032400080429A6021E07B68DB68DB089AB27B6889
:103250009B685B089BB213439BB21A4600217868B7
:1032600000F04CFB0346002B0BD001233B61396976
:10327000786800F0D9FB7B68012283F844200123A1
:103280000CE040F6FF70FFF7ABFC3969786800F09E
:10329000CBFB7B68012283F84420002318462037AB
:1032A000BD4680BD80B487B000AFF860B9607A6079
:1032B0003B6000237B61FB6893F84530012B01D113
:1032C000022351E0FB68012283F84520FB680222BB
:1032D00083F84420FB68BA68DA6200237B6130E03F
:1032E0007B695B01BA6813443B613B694FF4801210
:1032F0001A607B6940F2F45202FB03F37A681344CC
:103300001A463B699A60FB68DB69002B05D13B6973
:103310001B6843F440023B691A603B68013B7A69D1
:103320009A4208D27B6901335B01BA6813441A469A
:103330003B69DA6002E0BA683B69DA607B690133B5
:103340007B617A693B689A42CAD3FB681A68BB689A
:1033500002F580521361FB68012283F84420FB6868
:10336000002283F84520002318461C37BD465DF82F
:10337000047B704780B487B000AFF860B9607A60B2
:103380003B6000237B61FB6893F84530012B01D142
:10339000022355E0FB68012283F84520FB680222E6
:1033A00083F84420FB68BA689A6200237B6134E0AA
:1033B0007B695B01BA6813443B613B694FF0004293
:1033C0001A603B6944F2F4525A607B6940F2F4524D
:1033D00002FB03F37A6813441A463B699A60FB6860
:1033E0009B69012B05D13B695B6823F000423B6977
:1033F0005A603B68013B7A699A4208D27B69013383
:103400005B01BA6813441A463B69DA6002E0BA68A5
:103410003B69DA607B6901337B617A693B689A4278
:10342000C6D3FB681A68BB6802F58052D360FB689C
:10343000012283F84420FB68002283F84520002302
:1034400018461C37BD465DF8047B704780B487B0D2
:1034500000AF7860396000237B610023FB600023AC
:103460003B617B6893F84530012B01D10223CCE00E
:103470007B68012283F845207B68022283F8442080
:103480003B68002B09D17B68012283F844207B68CC
:10349000002283F845200123B7E07B68DB6A1B68C4
:1034A000002B09DA7B68122283F844207B68002213
:1034B00083F845200123A8E03B6840F2F452934290
:1034C00015D93B68544AA2FB03239B0A7B613A68E7
:1034D000514BA3FB02139B0A40F2F45101FB03F38F
:1034E000D31A002B05D07B6901337B6101E00123F6
:1034F0007B617B69012B1CD17B68DB6A1A687B6866
:10350000DB6A42F040521A607B68DB6A3A68C2F3B9
:103510000C025A607B68DB6A1A687B68DB6A42F0DF
:1035200000421A607B68DB6ADB681A467B68DA62F5
:103530004BE000233B6144E07B68DB6A1A687B68F0
:10354000DB6A22F040521A603B69002B07D17B688E
:10355000DB6A1A687B68DB6A42F080521A607B681B
:10356000DB6A40F2F4525A607B69013B3A699A4245
:1035700016D17B68DB6A1A687B68DB6A42F000520E
:103580001A607B69254A03FB02F23B68134403F28D
:10359000F453FB607B68DB6AFA68C2F30C025A6082
:1035A0007B68DB6A1A687B68DB6A42F000421A605B
:1035B0007B68DB6ADB681A467B68DA623B69013349
:1035C0003B613A697B699A42B6D37B681B6803F515
:1035D00080535B6903F00403002B0DD07B681B68EC
:1035E00003F580531A46042353617B681B6803F577
:1035F00080531A46002353607B68012283F84420DD
:103600007B68002283F84520002318461C37BD46FE
:103610005DF8047B704700BF0BB002AC0CFAFFFFF3
:1036200080B485B000AF78600023FB607B6893F8BE
:103630004530012B01D1022370E07B68012283F821
:1036400045207B68022283F844207B689B6A1B68C4
:10365000002B5ADB7B689B6A1B6803F48073002B8A
:1036600030D07B689B6B5A1C7B689A637B689B6B32
:10367000012B03D17B689A6A7B681A637B689A6A1C
:103680007B685A637B689B6A1B681B0CC3F30D0342
:10369000043BFB607B68FA68DA637B681B6B9A68A3
:1036A0007B681A647B689B6ADB681A467B689A624F
:1036B0007B68012283F844207B68002283F8452040
:1036C00000232BE07B689B6A1B6803F40073002BCC
:1036D00010D07B689A6A7B681A637B6800225A6301
:1036E0007B6801229A637B689B6ADB681A467B6869
:1036F0009A620AE07B689B6B5A1C7B689A637B68C2
:103700009B6ADB681A467B689A627B68012283F8B1
:1037100044207B68002283F8452001231846143793
:10372000BD465DF8047B704780B582B000AF78601D
:103730007B681B6803F580535B6903F04003402BF3
:1037400012D1786800F05EF87B681B6803F580533F
:103750001A46402353617B68012283F844207B682A
:10376000002283F845201AE07B681B6803F580532C
:103770005B6903F00103012B11D1786800F038F880
:103780007B681B6803F580531A46012353617B68ED
:10379000012283F844207B68002283F845207B685F
:1037A0001B6803F580531A464FF4803353617B68DE
:1037B0001B6803F580535B6903F40043B3F5004FC6
:1037C00012D1786800F028F87B681B6803F58053F5
:1037D0001A464FF4004353617B68012283F844206A
:1037E0007B68002283F8452000BF0837BD4680BDB6
:1037F00080B483B000AF786000BF0C37BD465DF881
:10380000047B704780B483B000AF786000BF0C3792
:10381000BD465DF8047B704780B483B000AF78602C
:1038200000BF0C37BD465DF8047B704780B586B09D
:1038300000AFF8600B467A607B8100237B61002338
:103840003B61FB6893F84430DBB2822B01D1022349
:1038500050E0FB68822283F84420FB681B681B69E8
:103860007B617B6903F01C037B61FB681B8ADB02C5
:103870009BB27A6913437B617B899B0103F4F863F4
:103880007A6913437B617B6923F002037B617B6967
:1038900043F001037B61FB681B687A691A61FFF7DB
:1038A00093F9386115E0FFF78FF902463B69D31AA7
:1038B000B3F5803F09D3FB68012283F84420FB68FD
:1038C000002283F84520032314E0FB681B681B6972
:1038D0007B617B6903F00103002BE4D1FB681B686B
:1038E0005B699BB21A467B681A60FB68012283F809
:1038F0004420002318461837BD4680BD80B586B0E9
:1039000000AFF8600B467A607B8100237B61002367
:103910003B61FB6893F84430DBB2422B01D10223B8
:103920004EE0FB68422283F84420FB681B681B6959
:103930007B617B6903F01C037B61FB681B8ADB02F4
:103940009BB27A6913437B617B899B0103F4F86323
:103950007A6913437B617B6943F002037B617B6976
:1039600043F001037B617B689AB2FB681B685A6174
:10397000FB681B687A691A61FFF726F9386115E060
:10398000FFF722F902463B69D31AB3F5803F09D30A
:10399000FB68012283F84420FB68002283F845205D
:1039A00003230DE0FB681B681B697B617B6903F0E7
:1039B0000103002BE4D1FB68012283F8442000239B
:1039C00018461837BD4680BD80B582B000AF78601C
:1039D0007B6893F84530012B01D102231FE07B68FF
:1039E000012283F845207B68022283F8442078680E
:1039F00000F018FA786800F032FA786800F078FA87
:103A0000786800F049FA786800F05CFA7B68012277
:103A100083F844207B68002283F845200023184661
:103A20000837BD4680BD000080B5B0B000AF7860FB
:103A300039600023C7F8BC303B68002B07D07B6897
:103A40004FF40062DA607B684FF480429A60002392
:103A5000BB640023FB6400233B6500237B650023DC
:103A6000BB650023FB657B68DB69002B03D14FF44A
:103A700080633B6601E000233B664FF400737B6686
:103A80000023BB660023FB6600233B6700237B67A4
:103A90000023BB674023FB670023C7F88030002367
:103AA000C7F884300023C7F888300023C7F88C306B
:103AB0000023C7F890300023C7F894300023C7F8DC
:103AC00098300023C7F89C308023C7F8A03000232B
:103AD000C7F8A4300023C7F8A8300023C7F8AC30DB
:103AE0000023C7F8B0300023C7F8B4300023C7F86C
:103AF000B8307B681B681B68C7F8BC30D7F8BC209F
:103B0000AA4B1340C7F8BC30BA6CFB6C1A433B6D30
:103B10001A437B6D1A437B689B681A43BB6D1A433B
:103B2000FB6D1A437B68DB681A433B6E1A437B6E5E
:103B30001A43BB6E1A43FB6E1A433B6F1343D7F80D
:103B4000BC201343C7F8BC307B681B68D7F8BC2087
:103B50001A607B681B681B68C7F8BC300120FFF740
:103B60003FF87B681B68D7F8BC201A607A6FBB6F80
:103B70001A43FB6F1A43D7F880301A43D7F88430C2
:103B80001A43D7F888301A43D7F88C3042EA030139
:103B9000D7F890207B681B680A435A607B681B68D3
:103BA0005B68C7F8BC300120FFF71AF87B681B6818
:103BB000D7F8BC205A607B681B68D7F894209A60BD
:103BC0007B681B68D7F89820DA607B681B689B6964
:103BD000C7F8BC30D7F8BC204FF641731340C7F884
:103BE000BC30D7F89C301A04D7F8A0301A43D7F865
:103BF000A4301A43D7F8A8301A43D7F8AC301A4388
:103C0000D7F8B0301343D7F8BC201343C7F8BC3003
:103C10007B681B68D7F8BC209A617B681B689B692E
:103C2000C7F8BC300120FEF7DBFF7B681B68D7F8C4
:103C3000BC209A61D7F8B410D7F8B8207B681B680D
:103C40000A43DA617B681B68DB69C7F8BC30012076
:103C5000FEF7C6FF7B681B68D7F8BC20DA6100233B
:103C6000BB604FF00073FB6000233B614FF4001317
:103C70007B610023BB610023FB6100233B620023C7
:103C80007B620423BB624FF00073FB624FF480330E
:103C90003B634FF480037B634FF40053BB6380238B
:103CA000FB6300233B6400237B647B681B6803F594
:103CB00080539B69C7F8BC30D7F8BC203C4B1340FD
:103CC000C7F8BC30BA68FB681A433B691A437B6982
:103CD0001A43BB691A43FB691A433B6A1A437B6A5E
:103CE0001A43BB6A1343D7F8BC201343C7F8BC3050
:103CF0007B681B6803F580531A46D7F8BC30936184
:103D00007B681B6803F580539B69C7F8BC300120B2
:103D1000FEF766FF7B681B6803F580531A46D7F8E9
:103D2000BC309361FA6A3B6B1A437B6B1A43BB6BE3
:103D30001A43FB6B1A433B6C9B001A437B6C134387
:103D40007A68126843F4000302F5805213607B68BE
:103D50001B6803F580531B68C7F8BC300120FEF7D1
:103D60003FFF7B681B6803F580531A46D7F8BC30C9
:103D700013607B689B69012B0DD17B681B6803F581
:103D80008053DB697A68126843F4803343F0400360
:103D900002F58052D3617B685B691A46002178681E
:103DA00000F008F800BFC037BD4680BD0F8120FF7E
:103DB000233FDEF880B487B000AFF860B9607A6066
:103DC0007B6805331B781B027A6804321278134330
:103DD0007B61BA68114B13441A467B6913607B6898
:103DE00003331B781A067B6802331B781B041A43C3
:103DF0007B6801331B781B0213437A6812781343E4
:103E00007B61BA68064B13441A467B69136000BF96
:103E10001C37BD465DF8047B704700BF4080024000
:103E20004480024080B584B000AF78600023FB601E
:103E30007B681B681A687B681B6842F008021A607E
:103E40007B681B681B68FB60012000F077F87B68CB
:103E50001B68FA681A6000BF1037BD4680BD80B588
:103E600084B000AF78600023FB607B681B681A6831
:103E70007B681B6842F004021A607B681B681B6841
:103E8000FB60012000F05AF87B681B68FA681A6032
:103E900000BF1037BD4680BD80B483B000AF7860EE
:103EA0007B681B6803F580539B697A68126843F44A
:103EB000005302F58052936100BF0C37BD465DF898
:103EC000047B704780B483B000AF78607B681B6868
:103ED00003F580539B697A68126843F0020302F588
:103EE0008052936100BF0C37BD465DF8047B70477C
:103EF00080B584B000AF78600023FB607B681B68EE
:103F000003F580539B697A68126843F4801302F5C5
:103F1000805293617B681B6803F580539B69FB604B
:103F2000012000F00BF87B681A68FB6802F58052EC
:103F3000936100BF1037BD4680BD000080B485B0DE
:103F400000AF78600B4B1B680B4AA2FB03235B0A94
:103F50007A6802FB03F3FB6000BFFB685A1EFA603D
:103F6000002BF9D100BF00BF1437BD465DF8047BBC
:103F7000704700BF00000020D34D621080B586B0AE
:103F800000AFF860B960C7E900230123FB75234B3C
:103F90001B7E012B01D102233BE0204B01221A762C
:103FA0004CF2503000F070F80346FB75FB7D002B9F
:103FB0002BD1FB68002B05D13B781946B86800F07F
:103FC0001BF916E0FB68012B05D13B881946B86840
:103FD00000F0EEF80DE0FB68022B05D13B681946B6
:103FE000B86800F0C3F804E0D7E90023B86800F02F
:103FF0008BF84CF2503000F047F80346FB75084B45
:104000001B69074A23F001031361044B00221A764F
:10401000FB7D18461837BD4680BD00BF94030020C5
:10402000003C024080B483B000AF0023FB710B4B17
:104030001B69002B0BDA094B094A5A60074B094AE6
:104040005A60064B1B69002B01DA0123FB71FB79D7
:1040500018460C37BD465DF8047B7047003C0240B3
:1040600023016745AB89EFCD80B400AF054B1B69D9
:10407000044A43F00043136100231846BD465DF82F
:10408000047B7047003C024080B584B000AF78608C
:104090000023FB601A4B0022DA61FEF795FDF86001
:1040A00010E07B68B3F1FF3F0CD07B68002B07D09A
:1040B000FEF78AFD0246FB68D31A7A689A4201D25B
:1040C000032319E00F4BDB6803F48033002BE8D1A6
:1040D0000C4BDB6803F00103002B02D0094B0122DB
:1040E000DA60084BDB6803F4F973002B03D000F0AF
:1040F000A5F8012300E0002318461037BD4680BD17
:1041000094030020003C024080B485B000AFF8600A
:10411000C7E90023144B1B69134A23F4407313614E
:10412000114B1B69104A43F4407313610E4B1B691A
:104130000D4A43F001031361FB683A681A60BFF34C
:104140006F8F00BFD7E900014FF000024FF000036E
:104150000A000023F968043113460B6000BF1437CE
:10416000BD465DF8047B7047003C024080B483B0DC
:1041700000AF786039600D4B1B690C4A23F4407323
:1041800013610A4B1B69094A43F400731361074B1F
:104190001B69064A43F0010313617B683A681A60A1
:1041A00000BF0C37BD465DF8047B7047003C024001
:1041B00080B483B000AF78600B467B800D4B1B69E9
:1041C0000C4A23F4407313610A4B1B69094A43F4F8
:1041D00080731361074B1B69064A43F001031361A7
:1041E0007B687A881A8000BF0C37BD465DF8047B77
:1041F000704700BF003C024080B483B000AF7860DD
:104200000B46FB700C4B1B690B4A23F44073136184
:10421000094B094A1B691361074B1B69064A43F0A6
:10422000010313617B68FA781A7000BF0C37BD4632
:104230005DF8047B704700BF003C024080B400AFD3
:104240002F4BDB6803F01003002B08D02D4BDB69EC
:1042500043F010032B4AD361294B1022DA60284B1C
:10426000DB6803F02003002B08D0264BDB6943F00A
:104270000803244AD361224B2022DA60204BDB68FA
:1042800003F04003002B08D01E4BDB6943F004030E
:104290001C4AD3611A4B4022DA60194BDB6803F0E9
:1042A0008003002B08D0174BDB6943F00203154A4B
:1042B000D361134B8022DA60114BDB6803F4807307
:1042C000002B09D00F4BDB6943F001030D4AD3618A
:1042D0000B4B4FF48072DA60094BDB6803F002038A
:1042E000002B08D0074BDB6943F02003054AD3615C
:1042F000034B0222DA6000BFBD465DF8047B7047C5
:10430000003C02409403002080B489B000AF786084
:10431000396000237B6100233B610023BB610023E4
:10432000FB6177E10122FB6902FA03F37B613B68E1
:104330001B687A6913403B613A697B699A4240F095
:1043400066813B685B6803F00303012B05D03B6883
:104350005B6803F00303022B30D17B689B68BB6171
:10436000FB695B00032202FA03F3DB43BA691340E3
:10437000BB613B68DA68FB695B0002FA03F3BA6968
:104380001343BB617B68BA699A607B685B68BB61F9
:104390000122FB6902FA03F3DB43BA691340BB61F4
:1043A0003B685B681B0903F00102FB6902FA03F337
:1043B000BA691343BB617B68BA695A603B685B6842
:1043C00003F00303032B17D07B68DB68BB61FB6939
:1043D0005B00032202FA03F3DB43BA691340BB61BB
:1043E0003B689A68FB695B0002FA03F3BA691343FE
:1043F000BB617B68BA69DA603B685B6803F0030302
:10440000022B23D1FB69DA087B68083253F822308B
:10441000BB61FB6903F007039B000F2202FA03F361
:10442000DB43BA691340BB613B681A69FB6903F05F
:1044300007039B0002FA03F3BA691343BB61FB69EC
:10444000DA087B680832B96943F822107B681B6878
:10445000BB61FB695B00032202FA03F3DB43BA6929
:104460001340BB613B685B6803F00302FB695B00C0
:1044700002FA03F3BA691343BB617B68BA691A6035
:104480003B685B6803F44033002B00F0C0800023DE
:10449000FB60664B5B6C654A43F480435364634B3B
:1044A0005B6C03F48043FB60FB68614AFB699B081B
:1044B000023352F82330BB61FB6903F003039B0016
:1044C0000F2202FA03F3DB43BA691340BB617B6836
:1044D000584A934237D07B68574A934231D07B6821
:1044E000564A93422BD07B68554A934225D07B682D
:1044F000544A93421FD07B68534A934219D07B6839
:10450000524A934213D07B68514A93420DD07B6844
:10451000504A934207D07B684F4A934201D1092306
:1045200012E00A2310E008230EE007230CE0062324
:104530000AE0052308E0042306E0032304E0022345
:1045400002E0012300E00023FA6902F00302920076
:104550009340BA691343BB613549FB699B08023339
:10456000BA6941F823203D4B9B68BB613B69DB4343
:10457000BA691340BB613B685B6803F48013002B8E
:1045800003D0BA693B691343BB61344ABB6993608A
:10459000324BDB68BB613B69DB43BA691340BB61EB
:1045A0003B685B6803F40013002B03D0BA693B69D6
:1045B0001343BB61294ABB69D360284B5B68BB616D
:1045C0003B69DB43BA691340BB613B685B6803F43A
:1045D0000033002B03D0BA693B691343BB611F4A08
:1045E000BB6953601D4B1B68BB613B69DB43BA6908
:1045F0001340BB613B685B6803F48033002B03D03E
:10460000BA693B691343BB61144ABB691360FB6918
:104610000133FB61FB690F2B7FF684AE00BF00BF47
:104620002437BD465DF8047B704700BF0038024068
:10463000003801400000024000040240000802402F
:10464000000C02400010024000140240001802401A
:10465000001C02400020024000240240003C0140B7
:1046600080B582B000AF00237B6000233B60204B0D
:104670001B6C1F4A43F0805313641D4B1B6C03F0EB
:1046800080533B603B681B4B01221A60FEF79CFA8B
:10469000786009E0FEF798FA02467B68D31AB3F512
:1046A0007A7F01D903231FE0134B5B6803F4803347
:1046B000B3F5803FEED1114B01221A60FEF784FA68
:1046C000786009E0FEF780FA02467B68D31AB3F5FA
:1046D0007A7F01D9032307E0074B5B6803F40033BB
:1046E000B3F5003FEED1002318460837BD4680BD24
:1046F0000038024040000E420070004044000E426C
:1047000080B586B000AF78607B68002B01D10123B3
:1047100067E27B681B6803F00103002B75D0884BB0
:104720009B6803F00C03042B0CD0854B9B6803F0B3
:104730000C03082B12D1824B5B6803F48003B3F5A2
:10474000800F0BD17E4B1B6803F40033002B5BD032
:104750007B685B68002B57D1012342E27B685B6872
:10476000B3F5803F06D1764B1B68754A43F480331E
:1047700013601DE07B685B68B3F5A02F0CD1704B14
:104780001B686F4A43F4802313606D4B1B686C4AAF
:1047900043F4803313600BE0694B1B68684A23F4D1
:1047A00080331360664B1B68654A23F480231360D3
:1047B0007B685B68002B13D0FEF706FA386108E0CF
:1047C000FEF702FA02463B69D31A642B01D9032390
:1047D00007E25B4B1B6803F40033002BF0D014E0BE
:1047E000FEF7F2F9386108E0FEF7EEF902463B69A0
:1047F000D31A642B01D90323F3E1514B1B6803F453
:104800000033002BF0D100E000BF7B681B6803F091
:104810000203002B63D04A4B9B6803F00C03002B70
:104820000BD0474B9B6803F00C03082B1CD1444B67
:104830005B6803F48003002B16D1414B1B6803F027
:104840000203002B05D07B68DB68012B01D001231C
:10485000C7E13B4B1B6823F0F8027B681B69DB0058
:10486000374913430B603AE07B68DB68002B20D0AC
:10487000344B01221A60FEF7A7F9386108E0FEF711
:10488000A3F902463B69D31A022B01D90323A8E1FD
:104890002B4B1B6803F00203002BF0D0284B1B6846
:1048A00023F0F8027B681B69DB00254913430B608A
:1048B00015E0244B00221A60FEF786F9386108E003
:1048C000FEF782F902463B69D31A022B01D9032372
:1048D00087E11B4B1B6803F00203002BF0D17B68C0
:1048E0001B6803F00803002B36D07B685B69002B44
:1048F00016D0154B01221A60FEF766F9386108E000
:10490000FEF762F902463B69D31A022B01D9032351
:1049100067E10B4B5B6F03F00203002BF0D01BE051
:10492000094B00221A60FEF74FF938610EE0FEF7DE
:104930004BF902463B69D31A022B07D9032350E1F6
:104940000038024000004742800E4742884B5B6FB0
:1049500003F00203002BEAD17B681B6803F0040319
:10496000002B00F097800023FB75814B1B6C03F03C
:104970008053002B0FD10023BB607D4B1B6C7C4A06
:1049800043F0805313647A4B1B6C03F08053BB607D
:10499000BB680123FB75774B1B6803F48073002B06
:1049A00018D1744B1B68734A43F480731360FEF78D
:1049B0000BF9386108E0FEF707F902463B69D31AA4
:1049C000022B01D903230CE16A4B1B6803F48073AB
:1049D000002BF0D07B689B68012B06D1644B1B6FCA
:1049E000634A43F0010313671CE07B689B68052B57
:1049F0000CD15F4B1B6F5E4A43F0040313675C4BA3
:104A00001B6F5B4A43F0010313670BE0584B1B6FAE
:104A1000574A23F001031367554B1B6F544A23F089
:104A2000040313677B689B68002B15D0FEF7CCF856
:104A300038610AE0FEF7C8F802463B69D31A41F232
:104A40008832934201D90323CBE0494B1B6F03F01B
:104A50000203002BEED014E0FEF7B6F838610AE04E
:104A6000FEF7B2F802463B69D31A41F2883293420C
:104A700001D90323B5E03E4B1B6F03F00203002B6B
:104A8000EED1FB7D012B05D1394B1B6C384A23F04D
:104A9000805313647B689B69002B00F0A180344B2A
:104AA0009B6803F00C03082B5CD07B689B69022B8E
:104AB00041D1314B00221A60FEF786F8386108E0D8
:104AC000FEF782F802463B69D31A022B01D9032371
:104AD00087E0274B1B6803F00073002BF0D17B6845
:104AE000DA697B681B6A1A437B685B6A9B011A431D
:104AF0007B689B6A5B08013B1B041A437B68DB6A8B
:104B00001B061B4913434B601B4B01221A60FEF727
:104B10005BF8386108E0FEF757F802463B69D31AA4
:104B2000022B01D903235CE0114B1B6803F00073D7
:104B3000002BF0D054E0104B00221A60FEF744F82E
:104B4000386108E0FEF740F802463B69D31A022BB1
:104B500001D9032345E0064B1B6803F00073002BCB
:104B6000F0D13DE07B689B69012B07D1012338E040
:104B70000038024000700040600047421B4B5B68F9
:104B8000FB607B689B69012B28D0FB6803F48002E3
:104B90007B68DB699A4221D1FB6803F03F027B68A6
:104BA0001B6A9A421AD1FA6847F6C07313407A68B2
:104BB000526A9201934211D1FB6803F440327B6840
:104BC0009B6A5B08013B1B049A4207D1FB6803F018
:104BD00070627B68DB6A1B069A4201D0012300E009
:104BE000002318461837BD4680BD00BF003802407C
:104BF00080B584B000AF786039607B68002B01D14C
:104C00000123CCE0684B1B6803F00F033A689A421B
:104C10000CD9654B3A68D2B21A70634B1B6803F02B
:104C20000F033A689A4201D00123B8E07B681B6801
:104C300003F00203002B20D07B681B6803F0040301
:104C4000002B05D0594B9B68584A43F4E0539360BE
:104C50007B681B6803F00803002B05D0534B9B684F
:104C6000524A43F460439360504B9B6823F0F00238
:104C70007B689B684D4913438B607B681B6803F01E
:104C80000103002B44D07B685B68012B07D1474BA5
:104C90001B6803F40033002B19D101237FE07B68EC
:104CA0005B68022B03D07B685B68032B07D13F4B0B
:104CB0001B6803F00073002B09D101236FE03B4B0D
:104CC0001B6803F00203002B01D1012367E0374B7F
:104CD0009B6823F003027B685B68344913438B6055
:104CE000FDF772FFF8600AE0FDF76EFF0246FB6811
:104CF000D31A41F28832934201D903234FE02B4B60
:104D00009B6803F00C027B685B689B009A42EBD1C6
:104D1000254B1B6803F00F033A689A420CD2224BD2
:104D20003A68D2B21A70204B1B6803F00F033A683E
:104D30009A4201D0012332E07B681B6803F0040330
:104D4000002B08D0194B9B6823F4E0527B68DB688A
:104D5000164913438B607B681B6803F00803002B24
:104D600009D0124B9B6823F460427B681B69DB000F
:104D70000E4913438B6000F089F802460B4B9B6889
:104D80001B0903F00F030A49CB5C22FA03F3094A1B
:104D90001360094B1B681846FDF7D2FE0023184626
:104DA0001037BD4680BD00BF003C024000380240C5
:104DB00040530308000000208800002080B58CB01C
:104DC00000AFF860B9607A60FB68002B29D100233E
:104DD000BB612B4B1B6B2A4A43F001031363284B27
:104DE0001B6B03F00103BB61BB694FF48073FB6174
:104DF00002233B620323BB6200237B620023FB622E
:104E000007F11C0319461F48FFF77EFA1C4B9B68ED
:104E100023F0EC62B9687B680B43194913438B603C
:104E200029E000237B61164B1B6B154A43F00403FA
:104E30001363134B1B6B03F004037B617B694FF41B
:104E40000073FB6102233B620323BB6200237B628E
:104E50000023FB6207F11C0319460B48FFF754FAC5
:104E6000074B9B6823F078427B68D900BB680B43F3
:104E7000034913438B6000BF3037BD4680BD00BF80
:104E80000038024000000240000802402DE9B04F07
:104E900090B000AF00237B630023FB6300233B63E0
:104EA0000023BB63594B9B6803F00C03082B0DD008
:104EB000082B00F2A180002B02D0042B03D09BE032
:104EC000534BBB639BE0534BBB6398E04F4B5B681A
:104ED00003F03F037B634D4B5B6803F48003002BBF
:104EE00028D04A4B5B689B0900223B627A623B6A8E
:104EF000C3F308000021474B03FB01F2002300FB32
:104F000003F31344434AA0FB0212FA620A46BA6250
:104F1000FA6A1344FB627B6B0022BB61FA61D7E93A
:104F20000623D7E90A01FBF757FE02460B46134654
:104F3000FB6353E0354B5B689B0900223B617A6160
:104F40003B69C3F3080A4FF0000B52465B464FF033
:104F500000004FF00001590141EAD26150010246C0
:104F60000B46B2EB0A0863EB0B094FF000024FF05F
:104F700000034FEA891343EA98634FEA8812B2EBC1
:104F8000080463EB09054FF000024FF00003EB004B
:104F900043EA5473E20014461D4614EB0A033B60D7
:104FA00045EB0B037B604FF000024FF00003D7E9A5
:104FB000004529468B02214643EA915321468A0245
:104FC000104619467B6B0022BB60FA60D7E90223CA
:104FD000FBF702FE02460B461346FB630B4B5B6876
:104FE0001B0C03F0030301335B003B63FA6B3B6B69
:104FF000B2FBF3F3BB6302E0054BBB6300BFBB6BCB
:1050000018464037BD46BDE8B08F00BF00380240AB
:105010000024F40040787D0180B400AF034B1B688E
:105020001846BD465DF8047B704700BF00000020B5
:1050300080B500AFFFF7F0FF0246054B9B689B0A67
:1050400003F007030349CB5C22FA03F3184680BD43
:10505000003802405053030880B500AFFFF7DCFF73
:105060000246054B9B685B0B03F007030349CB5CCF
:1050700022FA03F3184680BD00380240505303085B
:1050800080B582B000AF78607B68002B01D101232E
:1050900041E07B6893F83D30DBB2002B06D17B68A2
:1050A000002283F83C207868FCF798FD7B68022298
:1050B00083F83D207B681A687B68043319461046E4
:1050C00000F038FD7B68012283F846207B680122CE
:1050D00083F83E207B68012283F83F207B68012211
:1050E00083F840207B68012283F841207B680122FD
:1050F00083F842207B68012283F843207B680122E9
:1051000083F844207B68012283F845207B680122D4
:1051100083F83D20002318460837BD4680BD0000B7
:1051200080B485B000AF78607B6893F83D30DBB227
:10513000012B01D0012346E07B68022283F83D2049
:105140007B681B68234A934222D07B681B68B3F1BB
:10515000804F1DD07B681B681F4A934218D07B6824
:105160001B681E4A934213D07B681B681C4A9342FB
:105170000ED07B681B681B4A934209D07B681B6872
:10518000194A934204D07B681B68184A934211D194
:105190007B681B689B6803F00703FB60FB68062BBA
:1051A00010D07B681B681A687B681B6842F001029C
:1051B0001A6007E07B681B681A687B681B6842F00E
:1051C00001021A60002318461437BD465DF8047BBF
:1051D000704700BF0000014000040040000800408C
:1051E000000C004000040140004001400018004055
:1051F00080B483B000AF78607B681B681A6A41F2A4
:1052000011131340002B0FD17B681B681A6A40F200
:1052100044431340002B07D17B681B681A687B68E6
:105220001B6822F001021A607B68012283F83D208E
:10523000002318460C37BD465DF8047B704700001C
:1052400080B485B000AF78607B6893F83D30DBB206
:10525000012B01D001234EE07B68022283F83D2020
:105260007B681B68DA687B681B6842F00102DA60C1
:105270007B681B68234A934222D07B681B68B3F18A
:10528000804F1DD07B681B681F4A934218D07B68F3
:105290001B681E4A934213D07B681B681C4A9342CA
:1052A0000ED07B681B681B4A934209D07B681B6841
:1052B000194A934204D07B681B68184A934211D163
:1052C0007B681B689B6803F00703FB60FB68062B89
:1052D00010D07B681B681A687B681B6842F001026B
:1052E0001A6007E07B681B681A687B681B6842F0DD
:1052F00001021A60002318461437BD465DF8047B8E
:10530000704700BF0000014000040040000800405A
:10531000000C004000040140004001400018004023
:1053200080B483B000AF78607B681B68DA687B6804
:105330001B6822F00102DA607B681B681A6A41F27E
:1053400011131340002B0FD17B681B681A6A40F2BF
:1053500044431340002B07D17B681B681A687B68A5
:105360001B6822F001021A607B68012283F83D204D
:10537000002318460C37BD465DF8047B704780B5A6
:1053800082B000AF78607B68002B01D1012341E03F
:105390007B6893F83D30DBB2002B06D17B6800229E
:1053A00083F83C20786800F039F87B68022283F8A3
:1053B0003D207B681A687B6804331946104600F06C
:1053C000B9FB7B68012283F846207B68012283F8C1
:1053D0003E207B68012283F83F207B68012283F80E
:1053E00040207B68012283F841207B68012283F8FA
:1053F00042207B68012283F843207B68012283F8E6
:1054000044207B68012283F845207B68012283F8D1
:105410003D20002318460837BD4680BD80B483B0C8
:1054200000AF786000BF0C37BD465DF8047B704765
:1054300080B584B000AF786039603B68002B09D13B
:105440007B6893F83E30DBB2012B14BF01230023AD
:10545000DBB222E03B68042B09D17B6893F83F3034
:10546000DBB2012B14BF01230023DBB215E03B6844
:10547000082B09D17B6893F84030DBB2012B14BFB5
:1054800001230023DBB208E07B6893F84130DBB2F4
:10549000012B14BF01230023DBB2002B01D0012319
:1054A0007CE03B68002B04D17B68022283F83E201D
:1054B00013E03B68042B04D17B68022283F83F2071
:1054C0000BE03B68082B04D17B68022283F8402064
:1054D00003E07B68022283F841207B681B6801227D
:1054E0003968184600F010FE7B681B682D4A93420D
:1054F00004D07B681B682C4A934201D1012300E051
:105500000023002B07D07B681B685A6C7B681B68E4
:1055100042F400425A647B681B68224A934222D0BC
:105520007B681B68B3F1804F1DD07B681B681F4AE6
:10553000934218D07B681B681D4A934213D07B6846
:105540001B681C4A93420ED07B681B68164A934224
:1055500009D07B681B68184A934204D07B681B689B
:10556000164A934211D17B681B689B6803F00703BE
:10557000FB60FB68062B10D07B681B681A687B6891
:105580001B6842F001021A6007E07B681B681A681A
:105590007B681B6842F001021A600023184610372E
:1055A000BD4680BD000001400004014000040040F1
:1055B00000080040000C004000400140001800407E
:1055C00080B582B000AF78607B681B681B6903F010
:1055D0000203022B22D17B681B68DB6803F0020305
:1055E000022B1BD17B681B686FF002021A617B687B
:1055F00001221A777B681B689B6903F00303002B69
:1056000003D0786800F077FA05E0786800F069FA6E
:10561000786800F07AFA7B6800221A777B681B684A
:105620001B6903F00403042B22D17B681B68DB6831
:1056300003F00403042B1BD17B681B686FF004028A
:105640001A617B6802221A777B681B689B6903F4E6
:105650004073002B03D0786800F04DFA05E07868BD
:1056600000F03FFA786800F050FA7B6800221A7761
:105670007B681B681B6903F00803082B22D17B6839
:105680001B68DB6803F00803082B1BD17B681B68D1
:105690006FF008021A617B6804221A777B681B6826
:1056A000DB6903F00303002B03D0786800F023FAD2
:1056B00005E0786800F015FA786800F026FA7B6853
:1056C00000221A777B681B681B6903F01003102BFC
:1056D00022D17B681B68DB6803F01003102B1BD101
:1056E0007B681B686FF010021A617B6808221A77CA
:1056F0007B681B68DB6903F44073002B03D0786878
:1057000000F0F9F905E0786800F0EBF9786800F04E
:10571000FCF97B6800221A777B681B681B6903F021
:105720000103012B0ED17B681B68DB6803F00103CA
:10573000012B07D17B681B686FF001021A61786842
:10574000FCF70EFB7B681B681B6903F08003802B52
:105750000ED17B681B68DB6803F08003802B07D1C8
:105760007B681B686FF080021A61786800F0CAFDE0
:105770007B681B681B6903F04003402B0ED17B68DC
:105780001B68DB6803F04003402B07D17B681B6874
:105790006FF040021A61786800F0C1F97B681B68FD
:1057A0001B6903F02003202B0ED17B681B68DB688C
:1057B00003F02003202B07D17B681B686FF02002C9
:1057C0001A61786800F094FD00BF0837BD4680BDBF
:1057D00080B586B000AFF860B9607A600023FB75D1
:1057E000FB6893F83C30012B01D10223AEE0FB684B
:1057F000012283F83C207B680C2B00F29F8001A2E1
:1058000052F823F0395802083D5902083D59020860
:105810003D590208795802083D5902083D590208CD
:105820003D590208BB5802083D5902083D5902087B
:105830003D590208FB580208FB681B68B968184606
:1058400000F018FAFB681B689A69FB681B6842F055
:1058500008029A61FB681B689A69FB681B6822F062
:1058600004029A61FB681B689969BB681A69FB6846
:105870001B680A439A6164E0FB681B68B9681846B4
:1058800000F068FAFB681B689A69FB681B6842F4C1
:1058900000629A61FB681B689A69FB681B6822F4C6
:1058A00080629A61FB681B689969BB681B691A0270
:1058B000FB681B680A439A6143E0FB681B68B96890
:1058C000184600F0BDFAFB681B68DA69FB681B68C4
:1058D00042F00802DA61FB681B68DA69FB681B6842
:1058E00022F00402DA61FB681B68D969BB681A6997
:1058F000FB681B680A43DA6123E0FB681B68B96830
:10590000184600F011FBFB681B68DA69FB681B682E
:1059100042F40062DA61FB681B68DA69FB681B68A5
:1059200022F48062DA61FB681B68D969BB681B6975
:105930001A02FB681B680A43DA6102E00123FB7567
:1059400000BFFB68002283F83C20FB7D1846183717
:10595000BD4680BD80B584B000AF7860396000235B
:10596000FB737B6893F83C30012B01D10223B4E038
:105970007B68012283F83C207B68022283F83D206B
:105980007B681B689B68BB60BB6823F07703BB60C8
:10599000BB6823F47F43BB607B681B68BA689A606E
:1059A0003B681B68B3F5005F3ED0B3F5005F00F2C3
:1059B0008780B3F5805F00F08680B3F5805F7FD885
:1059C000702B1AD0702B7BD8602B50D0602B77D8DF
:1059D000502B3CD0502B73D8402B58D0402B6FD835
:1059E000302B64D0302B6BD8202B60D0202B67D885
:1059F000002B5CD0102B5AD062E07B6818683B68A3
:105A000099683B685A683B68DB6800F05DFB7B681F
:105A10001B689B68BB60BB6843F07703BB607B6817
:105A20001B68BA689A604FE07B6818683B689968A1
:105A30003B685A683B68DB6800F046FB7B681B6884
:105A40009A687B681B6842F480429A603CE07B68FD
:105A500018683B6859683B68DB681A4600F0BAFA78
:105A60007B681B685021184600F013FB2CE07B6814
:105A700018683B6859683B68DB681A4600F0D9FA39
:105A80007B681B686021184600F003FB1CE07B6804
:105A900018683B6859683B68DB681A4600F09AFA58
:105AA0007B681B684021184600F0F3FA0CE07B6825
:105AB0001A683B681B681946104600F0EAFA03E0D2
:105AC0000123FB7300E000BF7B68012283F83D20C7
:105AD0007B68002283F83C20FB7B18461037BD46CC
